{
  "contractName": "Deal",
  "abi": [
    {
      "inputs": [
        {
          "internalType": "address",
          "name": "_buyerAddr",
          "type": "address"
        }
      ],
      "payable": true,
      "stateMutability": "payable",
      "type": "constructor"
    },
    {
      "anonymous": false,
      "inputs": [
        {
          "indexed": false,
          "internalType": "address",
          "name": "buyer",
          "type": "address"
        },
        {
          "indexed": false,
          "internalType": "string",
          "name": "name",
          "type": "string"
        }
      ],
      "name": "BuyerRegistered",
      "type": "event"
    },
    {
      "anonymous": false,
      "inputs": [
        {
          "indexed": false,
          "internalType": "address",
          "name": "buyer",
          "type": "address"
        },
        {
          "indexed": false,
          "internalType": "uint256",
          "name": "invoiceno",
          "type": "uint256"
        },
        {
          "indexed": false,
          "internalType": "uint256",
          "name": "orderno",
          "type": "uint256"
        },
        {
          "indexed": false,
          "internalType": "uint256",
          "name": "delivery_date",
          "type": "uint256"
        },
        {
          "indexed": false,
          "internalType": "address",
          "name": "courier",
          "type": "address"
        }
      ],
      "name": "InvoiceSent",
      "type": "event"
    },
    {
      "anonymous": false,
      "inputs": [
        {
          "indexed": false,
          "internalType": "address",
          "name": "buyer",
          "type": "address"
        },
        {
          "indexed": false,
          "internalType": "uint256",
          "name": "invoiceno",
          "type": "uint256"
        },
        {
          "indexed": false,
          "internalType": "uint256",
          "name": "orderno",
          "type": "uint256"
        },
        {
          "indexed": false,
          "internalType": "uint256",
          "name": "real_delivey_date",
          "type": "uint256"
        },
        {
          "indexed": false,
          "internalType": "address",
          "name": "courier",
          "type": "address"
        }
      ],
      "name": "OrderDelivered",
      "type": "event"
    },
    {
      "anonymous": false,
      "inputs": [
        {
          "indexed": false,
          "internalType": "address",
          "name": "buyer",
          "type": "address"
        },
        {
          "indexed": false,
          "internalType": "string",
          "name": "goods",
          "type": "string"
        },
        {
          "indexed": false,
          "internalType": "uint256",
          "name": "quantity",
          "type": "uint256"
        },
        {
          "indexed": false,
          "internalType": "uint256",
          "name": "orderno",
          "type": "uint256"
        }
      ],
      "name": "OrderSent",
      "type": "event"
    },
    {
      "anonymous": false,
      "inputs": [
        {
          "indexed": false,
          "internalType": "address",
          "name": "buyer",
          "type": "address"
        },
        {
          "indexed": false,
          "internalType": "uint256",
          "name": "orderno",
          "type": "uint256"
        },
        {
          "indexed": false,
          "internalType": "uint256",
          "name": "price",
          "type": "uint256"
        },
        {
          "indexed": false,
          "internalType": "int8",
          "name": "ttype",
          "type": "int8"
        }
      ],
      "name": "PriceSent",
      "type": "event"
    },
    {
      "anonymous": false,
      "inputs": [
        {
          "indexed": false,
          "internalType": "address",
          "name": "buyer",
          "type": "address"
        },
        {
          "indexed": false,
          "internalType": "uint256",
          "name": "orderno",
          "type": "uint256"
        },
        {
          "indexed": false,
          "internalType": "uint256",
          "name": "value",
          "type": "uint256"
        },
        {
          "indexed": false,
          "internalType": "uint256",
          "name": "now",
          "type": "uint256"
        }
      ],
      "name": "SafepaySent",
      "type": "event"
    },
    {
      "constant": true,
      "inputs": [],
      "name": "buyerAddr",
      "outputs": [
        {
          "internalType": "address",
          "name": "",
          "type": "address"
        }
      ],
      "payable": false,
      "stateMutability": "view",
      "type": "function"
    },
    {
      "constant": true,
      "inputs": [],
      "name": "owner",
      "outputs": [
        {
          "internalType": "address payable",
          "name": "",
          "type": "address"
        }
      ],
      "payable": false,
      "stateMutability": "view",
      "type": "function"
    },
    {
      "constant": false,
      "inputs": [
        {
          "internalType": "string",
          "name": "goods",
          "type": "string"
        },
        {
          "internalType": "uint256",
          "name": "quantity",
          "type": "uint256"
        }
      ],
      "name": "sendOrder",
      "outputs": [],
      "payable": true,
      "stateMutability": "payable",
      "type": "function"
    },
    {
      "constant": true,
      "inputs": [
        {
          "internalType": "uint256",
          "name": "number",
          "type": "uint256"
        }
      ],
      "name": "queryOrder",
      "outputs": [
        {
          "internalType": "address",
          "name": "buyer",
          "type": "address"
        },
        {
          "internalType": "string",
          "name": "goods",
          "type": "string"
        },
        {
          "internalType": "uint256",
          "name": "quantity",
          "type": "uint256"
        },
        {
          "internalType": "uint256",
          "name": "price",
          "type": "uint256"
        },
        {
          "internalType": "uint256",
          "name": "safepay",
          "type": "uint256"
        },
        {
          "internalType": "uint256",
          "name": "delivery_price",
          "type": "uint256"
        },
        {
          "internalType": "uint256",
          "name": "delivey_safepay",
          "type": "uint256"
        }
      ],
      "payable": false,
      "stateMutability": "view",
      "type": "function"
    },
    {
      "constant": false,
      "inputs": [
        {
          "internalType": "uint256",
          "name": "orderno",
          "type": "uint256"
        },
        {
          "internalType": "uint256",
          "name": "price",
          "type": "uint256"
        },
        {
          "internalType": "int8",
          "name": "ttype",
          "type": "int8"
        }
      ],
      "name": "sendPrice",
      "outputs": [],
      "payable": true,
      "stateMutability": "payable",
      "type": "function"
    },
    {
      "constant": false,
      "inputs": [
        {
          "internalType": "uint256",
          "name": "orderno",
          "type": "uint256"
        }
      ],
      "name": "sendSafepay",
      "outputs": [],
      "payable": true,
      "stateMutability": "payable",
      "type": "function"
    },
    {
      "constant": false,
      "inputs": [
        {
          "internalType": "uint256",
          "name": "orderno",
          "type": "uint256"
        },
        {
          "internalType": "uint256",
          "name": "delivery_date",
          "type": "uint256"
        },
        {
          "internalType": "address payable",
          "name": "courier",
          "type": "address"
        }
      ],
      "name": "sendInvoice",
      "outputs": [],
      "payable": true,
      "stateMutability": "payable",
      "type": "function"
    },
    {
      "constant": true,
      "inputs": [
        {
          "internalType": "uint256",
          "name": "invoiceno",
          "type": "uint256"
        }
      ],
      "name": "getInvoice",
      "outputs": [
        {
          "internalType": "address",
          "name": "buyer",
          "type": "address"
        },
        {
          "internalType": "uint256",
          "name": "orderno",
          "type": "uint256"
        },
        {
          "internalType": "uint256",
          "name": "delivery_date",
          "type": "uint256"
        },
        {
          "internalType": "address",
          "name": "courier",
          "type": "address"
        }
      ],
      "payable": false,
      "stateMutability": "view",
      "type": "function"
    },
    {
      "constant": false,
      "inputs": [
        {
          "internalType": "uint256",
          "name": "invoiceno",
          "type": "uint256"
        },
        {
          "internalType": "uint256",
          "name": "timestamp",
          "type": "uint256"
        }
      ],
      "name": "delivery",
      "outputs": [],
      "payable": true,
      "stateMutability": "payable",
      "type": "function"
    }
  ],
  "bytecode": "0x60806040526040516118243803806118248339818101604052602081101561002657600080fd5b8101908080519060200190929190505050336000806101000a81548173ffffffffffffffffffffffffffffffffffffffff021916908373ffffffffffffffffffffffffffffffffffffffff16021790555080600160006101000a81548173ffffffffffffffffffffffffffffffffffffffff021916908373ffffffffffffffffffffffffffffffffffffffff1602179055505061175c806100c86000396000f3fe6080604052600436106100865760003560e01c8063a877f21511610059578063a877f2151461029b578063c3a1e5b3146102f2578063c5cc426a14610337578063d4f1259714610441578063fe2852481461049957610086565b80633a23cc0a1461008b5780636ca1608b146101475780638da5cb5b1461017f5780639670d699146101d6575b600080fd5b34801561009757600080fd5b506100c4600480360360208110156100ae57600080fd5b81019080803590602001909291905050506104c7565b604051808573ffffffffffffffffffffffffffffffffffffffff1673ffffffffffffffffffffffffffffffffffffffff1681526020018481526020018381526020018273ffffffffffffffffffffffffffffffffffffffff1673ffffffffffffffffffffffffffffffffffffffff16815260200194505050505060405180910390f35b61017d6004803603604081101561015d57600080fd5b810190808035906020019092919080359060200190929190505050610601565b005b34801561018b57600080fd5b50610194610974565b604051808273ffffffffffffffffffffffffffffffffffffffff1673ffffffffffffffffffffffffffffffffffffffff16815260200191505060405180910390f35b610299600480360360408110156101ec57600080fd5b810190808035906020019064010000000081111561020957600080fd5b82018360208201111561021b57600080fd5b8035906020019184600183028401116401000000008311171561023d57600080fd5b91908080601f016020809104026020016040519081016040528093929190818152602001838380828437600081840152601f19601f82011690508083019250505050505050919291929080359060200190929190505050610999565b005b3480156102a757600080fd5b506102b0610cea565b604051808273ffffffffffffffffffffffffffffffffffffffff1673ffffffffffffffffffffffffffffffffffffffff16815260200191505060405180910390f35b6103356004803603606081101561030857600080fd5b810190808035906020019092919080359060200190929190803560000b9060200190929190505050610d10565b005b34801561034357600080fd5b506103706004803603602081101561035a57600080fd5b8101908080359060200190929190505050610ed9565b604051808873ffffffffffffffffffffffffffffffffffffffff1673ffffffffffffffffffffffffffffffffffffffff16815260200180602001878152602001868152602001858152602001848152602001838152602001828103825288818151815260200191508051906020019080838360005b838110156104005780820151818401526020810190506103e5565b50505050905090810190601f16801561042d5780820380516001836020036101000a031916815260200191505b509850505050505050505060405180910390f35b6104976004803603606081101561045757600080fd5b810190808035906020019092919080359060200190929190803573ffffffffffffffffffffffffffffffffffffffff169060200190929190505050611079565b005b6104c5600480360360208110156104af57600080fd5b810190808035906020019092919050505061139d565b005b6000806000806003600086815260200190815260200160002060020160009054906101000a900460ff16610563576040517f08c379a00000000000000000000000000000000000000000000000000000000081526004018080602001828103825260118152602001807f496e766f696365206e6f7420666f756e6400000000000000000000000000000081525060200191505060405180910390fd5b6000600360008781526020019081526020016000209050600060026000836000015481526020019081526020016000209050600160009054906101000a900473ffffffffffffffffffffffffffffffffffffffff16816002015482600501600401548360050160000160009054906101000a900473ffffffffffffffffffffffffffffffffffffffff16809050955095509550955050509193509193565b6003600083815260200190815260200160002060020160009054906101000a900460ff16610697576040517f08c379a00000000000000000000000000000000000000000000000000000000081526004018080602001828103825260118152602001807f496e766f696365206e6f7420666f756e6400000000000000000000000000000081525060200191505060405180910390fd5b60006003600084815260200190815260200160002090506000600260008360000154815260200190815260200160002090503373ffffffffffffffffffffffffffffffffffffffff168160050160000160009054906101000a900473ffffffffffffffffffffffffffffffffffffffff1673ffffffffffffffffffffffffffffffffffffffff1614610791576040517f08c379a00000000000000000000000000000000000000000000000000000000081526004018080602001828103825260118152602001807f436f7572696572206e6f7420666f756e6400000000000000000000000000000081525060200191505060405180910390fd5b7f587b8bd23b43f29f1f6f1d2d4306080dbcc8f78f1ec918c6812b33001fefc990600160009054906101000a900473ffffffffffffffffffffffffffffffffffffffff16858360020154868560050160000160009054906101000a900473ffffffffffffffffffffffffffffffffffffffff16604051808673ffffffffffffffffffffffffffffffffffffffff1673ffffffffffffffffffffffffffffffffffffffff1681526020018581526020018481526020018381526020018273ffffffffffffffffffffffffffffffffffffffff1673ffffffffffffffffffffffffffffffffffffffff1681526020019550505050505060405180910390a16000809054906101000a900473ffffffffffffffffffffffffffffffffffffffff1673ffffffffffffffffffffffffffffffffffffffff166108fc82600401549081150290604051600060405180830381858888f193505050501580156108f8573d6000803e3d6000fd5b508060050160000160009054906101000a900473ffffffffffffffffffffffffffffffffffffffff1673ffffffffffffffffffffffffffffffffffffffff166108fc82600501600201549081150290604051600060405180830381858888f1935050505015801561096d573d6000803e3d6000fd5b5050505050565b6000809054906101000a900473ffffffffffffffffffffffffffffffffffffffff1681565b600160009054906101000a900473ffffffffffffffffffffffffffffffffffffffff1673ffffffffffffffffffffffffffffffffffffffff163373ffffffffffffffffffffffffffffffffffffffff16146109f357600080fd5b6004600081548092919060010191905055506040518060e00160405280838152602001828152602001600454815260200160008152602001600081526020016040518060e00160405280600073ffffffffffffffffffffffffffffffffffffffff1681526020016000815260200160008152602001600073ffffffffffffffffffffffffffffffffffffffff1681526020016000815260200160008152602001600015158152508152602001600115158152506002600060045481526020019081526020016000206000820151816000019080519060200190610ad7929190611682565b506020820151816001015560408201518160020155606082015181600301556080820151816004015560a08201518160050160008201518160000160006101000a81548173ffffffffffffffffffffffffffffffffffffffff021916908373ffffffffffffffffffffffffffffffffffffffff160217905550602082015181600101556040820151816002015560608201518160030160006101000a81548173ffffffffffffffffffffffffffffffffffffffff021916908373ffffffffffffffffffffffffffffffffffffffff1602179055506080820151816004015560a0820151816005015560c08201518160060160006101000a81548160ff021916908315150217905550505060c082015181600c0160006101000a81548160ff0219169083151502179055509050507fb7e953e9d5dc29b2595c1ea82eed1d21925712de892f26dd7323f0040bf3f59c338383600454604051808573ffffffffffffffffffffffffffffffffffffffff1673ffffffffffffffffffffffffffffffffffffffff16815260200180602001848152602001838152602001828103825285818151815260200191508051906020019080838360005b83811015610ca9578082015181840152602081019050610c8e565b50505050905090810190601f168015610cd65780820380516001836020036101000a031916815260200191505b509550505050505060405180910390a15050565b600160009054906101000a900473ffffffffffffffffffffffffffffffffffffffff1681565b6000809054906101000a900473ffffffffffffffffffffffffffffffffffffffff1673ffffffffffffffffffffffffffffffffffffffff163373ffffffffffffffffffffffffffffffffffffffff1614610d6957600080fd5b60026000848152602001908152602001600020600c0160009054906101000a900460ff16610d9657600080fd5b60018160000b1480610dab575060028160000b145b610db457600080fd5b60018160000b1415610de057816002600085815260200190815260200160002060030181905550610e31565b81600260008581526020019081526020016000206005016001018190555060016002600085815260200190815260200160002060050160060160006101000a81548160ff0219169083151502179055505b7faf54ca7c1ecf75ea1c151f265e9ab3eeecb27d19e8d3ec6b7e199414dd0c1ed6600160009054906101000a900473ffffffffffffffffffffffffffffffffffffffff16848484604051808573ffffffffffffffffffffffffffffffffffffffff1673ffffffffffffffffffffffffffffffffffffffff1681526020018481526020018381526020018260000b60000b815260200194505050505060405180910390a1505050565b60006060600080600080600060026000898152602001908152602001600020600c0160009054906101000a900460ff16610f1257600080fd5b600160009054906101000a900473ffffffffffffffffffffffffffffffffffffffff16600260008a8152602001908152602001600020600001600260008b815260200190815260200160002060010154600260008c815260200190815260200160002060030154600260008d815260200190815260200160002060040154600260008e815260200190815260200160002060050160010154600260008f815260200190815260200160002060050160020154858054600181600116156101000203166002900480601f0160208091040260200160405190810160405280929190818152602001828054600181600116156101000203166002900480156110595780601f1061102e57610100808354040283529160200191611059565b820191906000526020600020905b81548152906001019060200180831161103c57829003601f168201915b505050505095509650965096509650965096509650919395979092949650565b60026000848152602001908152602001600020600c0160009054906101000a900460ff1661110f576040517f08c379a000000000000000000000000000000000000000000000000000000000815260040180806020018281038252600f8152602001807f6f72646572206e6f7420666f756e64000000000000000000000000000000000081525060200191505060405180910390fd5b3373ffffffffffffffffffffffffffffffffffffffff166000809054906101000a900473ffffffffffffffffffffffffffffffffffffffff1673ffffffffffffffffffffffffffffffffffffffff16146111d1576040517f08c379a000000000000000000000000000000000000000000000000000000000815260040180806020018281038252600c8152602001807f77726f6e672073656e646572000000000000000000000000000000000000000081525060200191505060405180910390fd5b6005600081548092919060010191905055506040518060600160405280848152602001600554815260200160011515815250600360006005548152602001908152602001600020600082015181600001556020820151816001015560408201518160020160006101000a81548160ff021916908315150217905550905050816002600085815260200190815260200160002060050160040181905550806002600085815260200190815260200160002060050160000160006101000a81548173ffffffffffffffffffffffffffffffffffffffff021916908373ffffffffffffffffffffffffffffffffffffffff1602179055507fbc1c01dc0d1e366f76a22e7db8af8028033bd0a521feaf529046a6bc413ce0f0600160009054906101000a900473ffffffffffffffffffffffffffffffffffffffff16600554858585604051808673ffffffffffffffffffffffffffffffffffffffff1673ffffffffffffffffffffffffffffffffffffffff1681526020018581526020018481526020018381526020018273ffffffffffffffffffffffffffffffffffffffff1673ffffffffffffffffffffffffffffffffffffffff1681526020019550505050505060405180910390a1505050565b60026000828152602001908152602001600020600c0160009054906101000a900460ff16611433576040517f08c379a000000000000000000000000000000000000000000000000000000000815260040180806020018281038252600f8152602001807f4f72646572206e6f7420666f756e64000000000000000000000000000000000081525060200191505060405180910390fd5b3373ffffffffffffffffffffffffffffffffffffffff16600160009054906101000a900473ffffffffffffffffffffffffffffffffffffffff1673ffffffffffffffffffffffffffffffffffffffff16146114f6576040517f08c379a000000000000000000000000000000000000000000000000000000000815260040180806020018281038252600b8152602001807f57726f6e6720627579657200000000000000000000000000000000000000000081525060200191505060405180910390fd5b3460026000838152602001908152602001600020600501600101546002600084815260200190815260200160002060030154011461159c576040517f08c379a000000000000000000000000000000000000000000000000000000000815260040180806020018281038252600e8152602001807f7072696365206d69736d6174636800000000000000000000000000000000000081525060200191505060405180910390fd5b60026000828152602001908152602001600020600301546002600083815260200190815260200160002060040181905550600260008281526020019081526020016000206005016001015460026000838152602001908152602001600020600501600201819055507f4ca09f9926d2e48ef31cb6b14dbda230c7420702b8a8f5b878dd572c593e99d233823442604051808573ffffffffffffffffffffffffffffffffffffffff1673ffffffffffffffffffffffffffffffffffffffff16815260200184815260200183815260200182815260200194505050505060405180910390a150565b828054600181600116156101000203166002900490600052602060002090601f016020900481019282601f106116c357805160ff19168380011785556116f1565b828001600101855582156116f1579182015b828111156116f05782518255916020019190600101906116d5565b5b5090506116fe9190611702565b5090565b61172491905b80821115611720576000816000905550600101611708565b5090565b9056fea265627a7a7231582015106f5a75f6ccd68e310c83bc9e179dab977e92eb3a90c57874d6e7491a9c2264736f6c634300050c0032",
  "source": "pragma solidity >=0.4.21 <0.7.0;\n\ncontract Deal {\n\n  /// The seller's address\n  address payable public owner;\n\n  /// The buyer's address part on this contract\n  address public buyerAddr;\n\n  /// The Buyer struct\n  struct Buyer {\n    address addr;\n    string name;\n\n    bool init;\n  }\n\n  /// The Shipment struct\n  struct Shipment {\n    address payable courier;\n    uint256 price;\n    uint256 safepay;\n    address payer;\n    uint256 date;\n    uint256 real_date;\n\n    bool init;\n  }\n\n  /// The Order struct\n  struct Order {\n    string goods;\n    uint256 quantity;\n    uint256 number;\n    uint256 price;\n    uint256 safepay;\n    Shipment shipment;\n\n    bool init;\n  }\n\n  /// The Invoice struct\n  struct Invoice {\n    uint256 orderno;\n    uint256 number;\n\n    bool init;\n  }\n\n  /// The mapping to store orders\n  mapping (uint256 => Order) orders;\n\n  /// The mapping to store invoices\n  mapping (uint256 => Invoice) invoices;\n\n  /// The sequence number of orders\n  uint256 orderseq;\n\n  /// The sequence number of invoices\n  uint256 invoiceseq;\n\n  /// Event triggered for every registered buyer\n  event BuyerRegistered(address buyer, string name);\n\n  /// Event triggered for every new order\n  event OrderSent(address buyer, string goods, uint256 quantity, uint256 orderno);\n\n  /// Event triggerd when the order gets valued and wants to know the value of the payment\n  event PriceSent(address buyer, uint256 orderno, uint256 price, int8 ttype);\n\n  /// Event trigger when the buyer performs the safepay\n  event SafepaySent(address buyer, uint256 orderno, uint256 value, uint256 now);\n\n  /// Event triggered when the seller sends the invoice\n  event InvoiceSent(address buyer, uint256 invoiceno, uint256 orderno, uint256 delivery_date, address courier);\n\n  /// Event triggered when the courie delives the order\n  event OrderDelivered(address buyer, uint256 invoiceno, uint256 orderno, uint256 real_delivey_date, address courier);\n\n  /// The smart contract's constructor\n  constructor(address _buyerAddr) public payable {\n    /// The seller is the contract's owner\n    owner = msg.sender;\n\n    buyerAddr = _buyerAddr;\n  }\n\n  /// The function to send purchase orders\n  ///   requires fee\n  ///   Payable functions returns just the transaction object, with no custom field.\n  ///   To get field values listen to OrderSent event.\n  function sendOrder(string memory goods, uint256 quantity) public payable {\n    /// Accept orders just from buyer\n    require(msg.sender == buyerAddr);\n\n    /// Increment the order sequence\n    orderseq++;\n\n    /// Create the order register\n    orders[orderseq] = Order(goods, quantity, orderseq, 0, 0, Shipment(address(0), 0, 0, address(0), 0, 0, false), true);\n\n    /// Trigger the event\n    emit OrderSent(msg.sender, goods, quantity, orderseq);\n\n  }\n\n  /// The function to query orders by number\n  ///   Constant functions returns custom fields\n  function queryOrder(uint256 number) view public returns (address buyer, string memory goods, uint256 quantity, uint256 price, uint256 safepay, uint256 delivery_price, uint256 delivey_safepay) { \n    /// Validate the order number\n    require(orders[number].init);\n\n    /// Return the order data\n    return(buyerAddr, orders[number].goods, orders[number].quantity, orders[number].price, orders[number].safepay, orders[number].shipment.price, orders[number].shipment.safepay);\n  }\n\n  /// The function to send the price to pay for order\n  ///  Just the owner can call this function\n  ///  requires free\n  function sendPrice(uint256 orderno, uint256 price, int8 ttype) payable public {\n  \n    /// Only the owner can use this function\n    require(msg.sender == owner);\n\n    /// Validate the order number\n    require(orders[orderno].init);\n\n    /// Validate the type\n    ///  1=order\n    ///  2=shipment\n    require(ttype == 1 || ttype == 2);\n\n    if(ttype == 1){/// Price for Order\n\n      /// Update the order price\n      orders[orderno].price = price;\n\n    } else {/// Price for Shipment\n\n      /// Update the shipment price\n      orders[orderno].shipment.price = price;\n      orders[orderno].shipment.init = true;\n    }\n\n    /// Trigger the event\n    emit PriceSent(buyerAddr, orderno, price, ttype);\n\n  }\n\n  /// The function to send the value of order's price\n  ///  This value will be blocked until the delivery of order\n  ///  requires fee\n  function sendSafepay(uint256 orderno) public payable {\n\n    /// Validate the order number\n    require(orders[orderno].init,\"Order not found\");\n\n    /// Just the buyer can make safepay\n    require(buyerAddr == msg.sender,\"Wrong buyer\");\n\n    /// The order's value plus the shipment value must equal to msg.value\n    require((orders[orderno].price + orders[orderno].shipment.price) == msg.value,\"price mismatch\");\n\n    orders[orderno].safepay = orders[orderno].price;\n    orders[orderno].shipment.safepay = orders[orderno].shipment.price;\n    // orders[orderno].shipment.safepay = orders[orderno].shipment.price;\n\n    emit SafepaySent(msg.sender, orderno, msg.value, now);\n  }\n\n  /// The function to send the invoice data\n  ///  requires fee\n  function sendInvoice(uint256 orderno, uint256 delivery_date, address payable courier) payable public {\n\n    /// Validate the order number\n    require(orders[orderno].init,\"order not found\");\n\n    /// Just the seller can send the invoice\n    require(owner == msg.sender,\"wrong sender\");\n\n    invoiceseq++;\n\n    /// Create then Invoice instance and store it\n    invoices[invoiceseq] = Invoice(orderno, invoiceseq, true);\n\n    /// Update the shipment data\n    orders[orderno].shipment.date = delivery_date;\n    orders[orderno].shipment.courier = courier;\n\n    /// Trigger the event\n    emit InvoiceSent(buyerAddr, invoiceseq, orderno, delivery_date, courier);\n  }\n\n  /// The function to get the sent invoice\n  ///  requires no fee\n  function getInvoice(uint256 invoiceno) public view returns (address buyer, uint256 orderno, uint256 delivery_date, address courier){\n    /// Validate the invoice number\n    require(invoices[invoiceno].init,\"Invoice not found\");\n\n    Invoice storage _invoice = invoices[invoiceno];\n    Order storage _order = orders[_invoice.orderno];\n\n    return (buyerAddr, _order.number, _order.shipment.date, _order.shipment.courier);\n  }\n\n  /// The function to mark an order as delivered\n  function delivery(uint256 invoiceno, uint256 timestamp) public payable {\n\n    /// Validate the invoice number\n    require(invoices[invoiceno].init,\n    \"Invoice not found\");\n\n    Invoice storage invoice = invoices[invoiceno];\n    Order storage _order = orders[invoice.orderno];\n\n    /// Just the courier can call this function\n    require(_order.shipment.courier == msg.sender,\n    \"Courier not found\");\n\n    emit OrderDelivered(buyerAddr, invoiceno, _order.number, timestamp, _order.shipment.courier);\n\n    /// Payout the Order to the seller\n    owner.transfer(_order.safepay);\n\n    /// Payout the Shipment to the courier\n    _order.shipment.courier.transfer(_order.shipment.safepay);\n\n  }\n}",
  "sourcePath": "/home/simonas/Desktop/workspace/blockchain/ketvirta_uzduotis/contracts/Deal.sol",
  "compiler": {
    "name": "solc",
    "version": "0.5.12+commit.7709ece9.Emscripten.clang"
  },
  "schemaVersion": "3.0.19",
  "updatedAt": "2020-01-15T05:20:08.626Z",
  "devdoc": {
    "methods": {}
  },
  "userdoc": {
    "methods": {
      "constructor": "The smart contract's constructor",
      "delivery(uint256,uint256)": {
        "notice": "The function to mark an order as delivered"
      },
      "getInvoice(uint256)": {
        "notice": "The function to get the sent invoice  requires no fee"
      },
      "queryOrder(uint256)": {
        "notice": "The function to query orders by number   Constant functions returns custom fields"
      },
      "sendInvoice(uint256,uint256,address)": {
        "notice": "The function to send the invoice data  requires fee"
      },
      "sendOrder(string,uint256)": {
        "notice": "The function to send purchase orders   requires fee   Payable functions returns just the transaction object, with no custom field.   To get field values listen to OrderSent event."
      },
      "sendPrice(uint256,uint256,int8)": {
        "notice": "The function to send the price to pay for order  Just the owner can call this function  requires free"
      },
      "sendSafepay(uint256)": {
        "notice": "The function to send the value of order's price  This value will be blocked until the delivery of order  requires fee"
      }
    }
  }
}